:400000000080002011000000451800004518000008B5044B1A6803F53F5302331A6001F02BFC00BFFA46004010B5054C237833B9044B13B10448AFF300800123237010BD95
:400040005081FF1F0000000090370000084B10B51BB108490848AFF300800848036803B910BD074B002BFBD0BDE81040184700BF000000005481FF1F90370000C880FF1F64
:400080000000000001608280C380042101844184053A12B28284053B1BB2C3848283C383012380F8443080F84530002303630387C3864387838703640C4A02656FF07F4212
:4000C0008264C36403614361836109E003F10B02002140F8321000EBC20211710133DBB2032BF3D9024B186001207047EF8B5E006C81FF1F30B4054B1C68303405460FCDD3
:400100000FC42B68236030BC704700BF6C81FF1F2DE9F04383B081460D46164698460A9F824201DA91460646A84502DA2B4645469846124B1B6893F8642012F0020F17D0A2
:400140001C6E00974346324629464846A04778B910E00A4B1B681B683A46294620469847013424B200E04C46A642F2DA01352DB2A845F8DA03B0BDE8F08300BF6C81FF1F2F
:4001800000B583B0084B1B68B3F90420B3F90630013B013A00901BB212B200210846FFF7B7FF03B05DF804FB6C81FF1F014B1B68986470476C81FF1F014B1B68D8647047BB
:4001C0006C81FF1F2DE9F04F87B00446049111460293DDF84480A0F1B0034C2B37D8DFE803F033363636363136363636363636363636363636362F3636363636363636363B
:4002000036363636363636362736363636362B363636363636362D3636363636363636363636363636363636353636363636290099240CE081240AE09A2408E0842406E099
:400240008E2404E0E62402E0F82400E09424A2B2B8F80A309A42C0F06781B8F80C00824200F262818AB20192B8F9062090B20590002800F059814FEAD00910F0070F01D0D9
:4002800009F10109D8F8100010B1E51A405D0590A748006890F86C5015F0020F00F09C80856EB8F90830019A1A44531E059E04983218013A1BB212B2A847074698F8043010
:4002C000002B38D1B8F80A30E41AB8F9083004FB03F303FB09F30022019226E0D8F8002003F1010BD65C00240CE016F0010F02D00298B84701E01098B8477608013DADB2F9
:400300000134A4B2072C01D8002DEED10AF1010A1FFA8AFA5B4602E0059D4FF0000ACA45DCD3019A013292B20192B8F9082001999142F1DBF8E0012B40F0F680B8F80A3020
:40034000E41AB8F9083004FB03F3B8F9062003FB02F30026DDF814B0029DDDF8409036E0D8F8002003F1010AD25CEBB25FFA89F0C2F5807101FB00F002FB0303C3F30720BE
:4003800005F47F4309F47F4E0EFB01FE03FB02E31B0A03F47F43034305F47F0009F47F0E0EFB01F100FB0210000A00F47F001843B8470134A4B2534600E000245C45CFD35D
:4003C000B8F90620CBEB020213440136B6B2B8F908209642F1DBA7E098F8041000294AD1E31AB8F9082003FB02F303FB09F3002203923AE0BDF81060059D4FF0000A2AE0DC
:40040000D8F8002003F1010BD75C00241AE017F0010F08D0464B1B681B68029ABDF9041030B2984707E0424B1B681B68109ABDF9041030B298477F080136B6B2013DADB25C
:400440000134A4B2072C01D8002DE0D10AF1010A1FFA8AFA5B46CA45D2D3019A013292B20192039A013292B20392B8F9082003999142BFDB58E0012956D1E41AB8F908306F
:4004800004FB03F303FB02F30027DDF814B0029EDDF8409044E0BDF81050002433E0D8F8002003F1010AD35CF2B25FFA89F1C3F5807000FB01F103FB0212C2F3072206F4CB
:4004C0007F4109F47F4E0EFB00FE01FB03E1090A01F47F41114306F47F0209F47F0E0EFB00F002FB0302120A02F47F02104B1B681B680A43BDF9041028B298470135ADB216
:400500000134A4B253465C45C9D3B8F90620CBEB02021344019A013292B201920137BFB2B8F908209742B6DB07B0BDE8F08F00BF6C81FF1F10B582B0044C24683034019470
:40054000049C0094FFF73EFE02B010BD6C81FF1F2DE9F04383B080460F461546064633E0013583B21B4A1468628F93422CD3A18F8B4229D80A2802D1B4F9046024E0236C82
:400580001BB1821A13F8029001E094F8369006EB0902B4F90430013B9A4207DDB4F9382094F9453013441F443FB24646A36CE26C00923A463146FFF7BDFF064B1B6893F9F4
:4005C00044304B441E4436B228780028C8D103B0BDE8F0836C81FF1F2DE9F04782B080460F4614469A46DDF82890054631E0013482B21B4B1B68598F8A422AD39E8FB24296
:4006000027D80A2802D1B3F9045022E01A6C12B1411A565C01E093F83660A919B3F90420013A914207DDB3F9382093F9453013441F443FB24546CDF8009053463A462946C0
:40064000FFF778FF064B1B6893F944301E4435442DB220780028CAD102B0BDE8F08700BF6C81FF1F032808D8044B1B680B3043F8301003EBC0000323037170476C81FF1FEF
:4006800010B5642001F0FAFE00240CE0002001F05DFE322001F0F2FE012001F057FE322001F0ECFE0134042CF0DD0121002001F01DFE0A2001F0E2FE0A2001F0DFFE012130
:4006C000002001F013FE0A2001F0D8FE0A2001F0D5FE0121002001F009FE0A2001F0CEFE0A2001F0CBFEE021002001F0FFFD0121084601F0FBFD322001F0C0FEE02100206B
:4007000001F0F4FD0321012001F0F0FD322001F0B5FE0121002001F0E9FD0A2001F0AEFE322001F0ABFEB021002001F0DFFD0821012001F0DBFD8021012001F0D7FD012178
:40074000084601F0D3FDDF21012001F0CFFD0121084601F0CBFD0F21012001F0C7FD0021012001F0C3FDF021002001F0BFFD0021012001F0BBFD3A21002001F0B7FD602100
:40078000012001F0B3FDE621002001F0AFFD0121084601F0ABFD4521012001F0A7FD4721012001F0A3FDB421002001F09FFD0221012001F09BFD0D21012001F097FD002130
:4007C000012001F093FD2B21012001F08FFD2821012001F08BFD0021012001F087FD0021012001F083FD0021012001F07FFDB621002001F07BFD0121084601F077FD1D21FE
:40080000012001F073FD0021012001F06FFD0C21012001F06BFD0921012001F067FD0021012001F063FD0021012001F05FFD2A21002001F05BFD0021012001F057FD0021D2
:40084000012001F053FD0121084601F04FFDDF21012001F04BFD2B21002001F047FD0021012001F043FD0021012001F03FFD0121084601F03BFD0F21012001F037FD132149
:40088000002001F033FD3821002001F02FFD2921002001F02BFD4FF488734FF4F07208490848FFF7EFFB08490120FFF7DBFE07490020FFF7D7FE06490320FFF7D3FE10BDF8
:4008C00031090000C881FF1F790900001D0A0000850A000030B583B015461C46030A8DF804308DF805000B0A8DF806308DF807102A21002001F0FAFC04220DEB02010120FA
:4009000001F002FD2B0A8DF804308DF80550230A8DF806308DF807402B21002001F0E6FC04220DEB0201012001F0EEFC03B030BD00B583B0130C8DF80430130A8DF80530B8
:400940008DF8062083B2B3F5F07F12D2002910DBB1F5887F0DDA0A464B1C411CFFF7BAFF2C21002001F0C2FC032201A9012001F0CBFC03B05DF804FB2DE9F04182B0089C49
:40098000250C8DF80450250A8DF805508DF8064086B2B6F5F07F2DD200292EDBB1F5887F2EDA94B2B4F5F07F2DD2002B2EDBB3F5887F2EDA1D4690460F460A464146FFF77E
:4009C00089FF2C21002001F091FC0DE0BCB206E0032201A9012001F097FC0134A4B2681C8442F5DB0136B6B208F101039E42EDDB002010E04FF0FF300DE04FF0FF300AE023
:400A00004FF0FF3007E04FF0FF3004E04FF0FF3001E04FF0FF3002B0BDE8F08110B582B084B2B4F5F07F17D2002918DBB1F5887F18DA94B2B4F5F07F17D2002B18DBB3F594
:400A4000887F18DA904201D0994217D1049C0094FFF792FF002013E04FF0FF3010E04FF0FF300DE04FF0FF300AE04FF0FF3007E04FF0FF3004E04FF0FF3001E04FF0FF30D4
:400A800002B010BD38B5BDF8144085B2B5F5F07F1FD2002920DBB1F5887F20DA95B2B5F5F07F1FD2002B20DBB3F5887F20DA15460A462946FFF70EFF2C21002001F016FC08
:400AC00004EB440292B20499012001F01DFC002038BD4FF0FF3038BD4FF0FF3038BD4FF0FF3038BD4FF0FF3038BD4FF0FF3038BD4FF0FF3038BD00BF00B583B06FF07F4089
:400B0000FFF73EFB4FF47F0300930A231A4600210846FFF7FDFAFF2300934FF488730A224FF483710020FFF7F3FA4FF47F4300930A234FF4F07200214FF4EB70FFF7E8FAEB
:400B4000094B00934FF488734FF4F0724FF483714FF4EB70FFF7DCFA4FF4967001F08EFC03B05DF804FB00BF00FFFF0008B50020FFF706FB104A0A214420FFF7E9FC0F4A91
:400B80000A2140F22910FFF7E3FC0D4AC3210A20FFF7DEFC0B4AF0210A20FFF7D9FC0A4AC32140F25310FFF7D3FC084AF0214FF49670FFF7CDFC08BD24F9010030F9010030
:400BC0003CF9010044F901004CF9010054F9010030B585B004463948FFF78CFA642C19D1374B1B68B3F57F4F0AD04FF47F440094AA23D22223211E20FFF78AFA304B1C606F
:400C00004FF47F43009300232E4A50213720FFF7E3FC4DE022462C4903A802F095F9092C29D94B2C05D8322C06D8192C06D9274C06E04FF47F4403E0254C01E04FF47F046A
:400C400025238DF80E3000238DF80F301C4B1B689C4208D00094AA23D22223211E20FFF757FA174B1C600094002303AA50214620FFF7B2FC1CE025238DF80D3000248DF858
:400C80000E400094AA23D22223211E20FFF740FA4FF47F050095AA23D22223211E20FFF737FA0095234603AA50215A20FFF794FC0848FFF71FFA05B030BD00BF8438000081
:400CC0004482FF1F60F9010068F9010000A5FF0000FFFF00C038000030B585B005462C2819D931281AD936281AD900230093AA234FF4E17223214FF48770FFF709FA4FF49F
:400D00007F040094AA234FF4E17223214FF48770FFF7FEF905E04FF47F4402E0154C00E0154C164B1B689C420AD00094AA234FF4E17223214FF48770FFF7EAF90F4B1C609F
:400D40000F48FFF7D7F92A460E4903A802F0FCF843238DF80E3000238DF80F30009403AA50214FF49B70FFF737FC0748FFF7C2F905B030BD00FFFF0000A5FF005482FF1F8D
:400D80008438000068F90100C038000030B583B0044610F0800F00F0D78000F07F04072C00F20F81DFE804F0041C36506A849EB6854B1A68854B9A4209D01C460093D72354
:400DC000F022B9215F20FFF7A3F97F4B1C607F4B009300237E4AC3216420FFF7FDFBF0E0794B1B68B3F57F0F0AD04FF47F040094D723F022B9215F20FFF78AF9724B1C607A
:400E00004FF47F0300930023724AC3216420FFF7E3FBD6E06C4B1B68B3F57F0F0AD04FF47F040094D723F022B9215F20FFF770F9654B1C604FF47F0300930023664AC321E6
:400E40006420FFF7C9FBBCE05F4B1B68B3F57F0F0AD04FF47F040094D723F022B9215F20FFF756F9584B1C604FF47F03009300235A4AC3216420FFF7AFFBA2E0524B1B686F
:400E8000B3F57F0F0AD04FF47F040094D723F022B9215F20FFF73CF94B4B1C604FF47F03009300234E4AC3216420FFF795FB88E0454B1B68B3F57F0F0AD04FF47F04009440
:400EC000D723F022B9215F20FFF722F93E4B1C604FF47F0300930023424AC3216420FFF77BFB6EE0384B1A68384B9A4209D01C460093D723F022B9215F20FFF709F9324B42
:400F00001C60324B00930023374AC3216420FFF763FB56E02C4B1B68B3F57F0F0AD04FF47F040094D723F022B9215F20FFF7F0F8254B1C604FF47F03009300232B4AC32128
:400F40006420FFF749FB3CE01F4B1B68B3F57F4F0AD04FF47F450095D723F022B9215F20FFF7D6F8184B1D60032C2AD8DFE804F0020C16204FF47F43009300231C4AC32180
:400F80006420FFF729FB1CE04FF47F4300930023184AC3216420FFF71FFB12E04FF47F4300930023144AC3216420FFF715FB08E04FF47F4300930023104AC3216420FFF72E
:400FC0000BFB03B030BD00BF4C82FF1F00FFFF006CF9010078F9010084F9010090F901009CF90100A8F90100B4F90100C0F90100CCF90100D8F90100E4F90100F0F90100C2
:4010000030B585B040F25B3404FB00F02B4CA4FB0034E409123440F27E439C4209D840F24C439C4208D840F21A439C4206D9244D06E04FF47F4503E0224D01E04FF47F0594
:40104000214B1B689D4209D000954FF48273B622E6215F20FFF75CF81B4B1D6022461B4902A801F071FFB4F57A7F0ED29DF80A308DF80B309DF809308DF80A309DF808302F
:401080008DF8093020238DF808309DF80B308DF80C309DF80A308DF80B302E238DF80A3056238DF80D3000238DF80E30009502AAF0216420FFF790FA05B030BDD34D621097
:4010C00000A5FF0000FFFF004082FF1F68F9010030B585B0044663281DD94FF47F450095D7234FF4EB72B9214FF4CD70FFF710F82246184902A801F027FF43238DF80B30E9
:4011000000238DF80C30009502AAC32140F29F10FFF762FA1CE04FF47F450095D7234FF4EB72B9214FF4CD70FEF7F2FF2246094902A801F009FF43238DF80A3000238DF8D7
:401140000B30009502AAC3214FF4D370FFF744FA05B030BD68F9010030B585B0044663281ED94FF47F4500954FF482734FF4EB72E6214FF4CD70FEF7CBFF2246184902A83E
:4011800001F0E2FE43238DF80B3000238DF80C30009502AAF02140F29F10FFF71DFA1DE04FF47F4500954FF482734FF4EB72E6214FF4CD70FEF7ACFF2246094902A801F027
:4011C000C3FE43238DF80A3000238DF80B30009502AAF0214FF4D370FFF7FEF905B030BD68F9010008B5064B1B78002000F0DAFF642001F043F9012000F0D4FF08BD00BFBA
:401200006765004008B5072854D8DFE800F0040E18222C36404A002000F024FF002000F015FF002000F006FF08BD002000F01AFF012000F00BFF012000F0FCFE08BD002036
:4012400000F010FF012000F001FF002000F0F2FE08BD012000F006FF012000F0F7FE002000F0E8FE08BD012000F0FCFE002000F0EDFE002000F0DEFE08BD012000F0F2FE0A
:40128000002000F0E3FE012000F0D4FE08BD002000F0E8FE002000F0D9FE012000F0CAFE08BD012000F0DEFE012000F0CFFE012000F0C0FE08BD00BF38B50546002406E0BA
:4012C000E0B2FFF79FFF284601F0D8F80134072CF6DD38BD08B500F023FF00F04BFF08BD10B500F05BFF012001F024F800F0F2FFFFF7C6F95748FEF7FDFE0020FEF75CFFC9
:401300006FF07F40FEF752FFFFF7F6FB62B6FFF7E1FF00F09FFF504800F0C4FF00F006FB00F00EFDC820FFF7C7FF01F06FFBFFF71DFC8020FFF72AFD012000F053FE474BF0
:401340005B68642B08D900231A461946184600F0C3F88022414B1A72404B5B899BB243B13E4B1B7A13F0FF0F03D03C4B80221A725B8900F04FFE28B1384A137B43F00203EC
:40138000137304E0354A137B03F0FD03137300F049FE28B1314A137B43F00103137304E02E4A137B03F0FE0313732C4C207B00F079F8608980B2B0FA80F0400901F0E2FC42
:4013C000607B00F0200001F0D1FCA07BFFF700FCE07BFFF781FC207AFFF7D8FC01F08CFB01F078FBFFF70CFE208A80B2FFF770FE608A80B2FFF7B0FE237ADBB2032B0CD1F4
:40140000174B1B68022B08D1012000F0F7FD01F03BFD01F0FBFC01F0C1FC104A137ADBB20F490B60137ADBB2032B02D0002000F0E5FD0A4B1B7A13F0FF0F3FF47DAF01203F
:4014400000F0F8FD012000F001FE012000F00AFE72E700BFC0380000E51100007881FF1FCC80FF1F00B587B0039100238DF810308DF8113008228DF812208DF8133001AA55
:40148000059206E0C15C06AA1A4402F8141C0133DBB2072BF6D903A800F0AEFC07B05DF804FB00BF00B583B08DF8000000238DF801308DF802308DF803308DF804308DF896
:4014C00005308DF806308DF80730D0216846FFF7C9FF03B05DF804FB00B583B08DF800008DF801108DF8022000228DF803208DF804308DF805208DF806208DF8072040F27C
:4015000066716846FFF7AEFF012000F0B7FF03B05DF804FBFEE700BFF0B40022174611E050F82760F3B226F0FF0608E001EB420511F812406D78A5550132013BDBB2002BF2
:40154000F4D10137212FEBD9F0BC70470A4B1B78DBB203F00701094A11701B09013213700422074B1A704023064A1370583213706622054B1A707047CF0100496E5800405C
:401580003D510040005B00407658004008B50A46002101F0D0FC08BD08B501F0C1FC08BD38B50024314B1C80502202331A7002331C80582202331A7045F6BF5202331A8055
:4015C000182202331A70042229492A48FFF7E4FF0622294B1A700222A3F580731A70274B1B78DBB2264A13704FF4E162254B1A8041F25122023B1A8019250CE0224B1B78F4
:4016000003F0010343EA440404F003044FF4F07001F04AFC013D0DB1032CEFD115B90320FFF778FF194B4FF480721A8007221A70002217490A704820023108701A7002227D
:40164000033B1A7004220A331A70124A137843F007031370013A137843F001031370013A137843F08003137038BD00BF804000407C06004800410040004300400B010049B8
:40168000A146004022420040254200400440004006400040A2430040012807D8044B53F820201844017A13780B431370704700BFFCF90100012808D8044B53F820201844C9
:4016C000017A137823EA010313707047FCF9010038B572B6414A137843F00403137000240BE03F4863001A19510001440A46098AD068FFF74BFF0134E4B2062CF1D90024B3
:401700000CE03748A20011194B000344B3F84020D96B986BFFF740FF0134E4B2012CF0D930494FF09040FFF7F7FE0A242E4B1C702E4A137843F0020313701032137843F034
:40174000020313702A4D2B7843F040032B70A2F58632513A137843F010031370224625492548FFF719FF082224492548FFF714FF224624492448FFF70FFF224623492448A5
:40178000FFF70AFF224623492348FFF705FF082222492348FFF700FF224622492248FFF7FBFE082221492248FFF7F6FE214A137843F008031370204C61232370FFF7F0FECA
:4017C0008123237001221D4B1A70FFF7BFFE0E2229461B48FFF7E0FE38BD00BFE8460040FCF90100880000488358004003500140A0430040280600480051004034060048D1
:40180000C25100403C06004810510040480600482051004054060048305100406006004842510040680600485051004074060048625100402243004000480040040008403A
:40184000B0430040FEE700BF08B5094B1A681044084BC31A802B02DC054B186005E001F033FB0C2303604FF0FF32104608BD00BFD080FF1F6882FF1F08B5104E104D16E065
:4018800029686B68AC68002204E051F8040B43F8040B0432A242F8D1E868002203E0002143F8041B04328242F9D11035013E002EE6D101F00FFBFFF713FDFEE70100000041
:4018C00004FC010008B5104A104B1A60104A136843F40073136000230AE0032B03D80D4A52F8231000E00C490C4A42F8231001332F2BF2D90A4B1A780A4B1A70074A0A4B62
:401900001A60FFF7E5FE08BD0004FA050CED00E014ED00E000000000451800000080FF1FBC760040C080FF1F08ED00E0064B1A7842F001021A701B7813F0010F01D10120F7
:4019400070470020704700BF04A0004008B501F0B3FA154A137843F0010313701032137843F00103137001F0ABFA41F201020F4B1A60FFF7DBFF4FF480320D4B1A600D4A22
:40198000136843F00103136040F6E80300E0013B23B1084A126812F0010FF8D00BB9012008BD002008BD00BFA643004000A0004000E100E010A0004010F4004F07D1064BC7
:4019C00018801B889BB2984203D001207047022070470020704700BF16A0004050B90D4B5A7802F0EF025A705B7813F0100F0CD001207047074B5A7842F010025A705B78E7
:401A000013F0100F03D101207047002070470020704700BF14A0004030B4841EE4B20D2C28D88C1EE4B2052C02D92BBB012925D1032A25D8904225D3914225D3164D6C78CA
:401A400004F0F004204368706C78E4B2A0421DD10BB9002000E002204B01DBB29200D2B2134303430C4A13701278D2B293420FD001200EE002200CE002200AE0022008E0BA
:401A8000022006E0022004E0022002E0012000E0002030BC704700BF14A0004050B90D4B1A7802F0EF021A701B7813F0100F0CD001207047074B1A7842F010021A701B788F
:401AC00013F0100F03D101207047002070470020704700BF14A0004050B90D4B1A7802F0FE021A701B7813F0010F0CD001207047074B1A7842F001021A701B7813F0010FA5
:401B000003D101207047002070470020704700BF14A00040044B18801B889BB2984201D0012070470020704704A0004003785B01214A416841F08011995003785B01991865
:401B40009A5802F07F12436823F080139A4228D183680B610278184B03EB421319698268914220D1C2685A610278134B03EB42135969C268914218D14FF0FF329A61027896
:401B80000D4B03EB42139A69B2F1FF3F0FD10022DA610278084B03EB4213DB694BB101207047012070470120704701207047012070470020704700BFA0A000400178090148
:401BC000114A436843F4000343F008038B5003781B0199189B580D4A1A40436823F4000323F008039A420BD183684B600278064B03EB02135A6883689A4203D0012070476D
:401C0000012070470020704720A00040F7007F0038B5002409E004EB440293000E481844FFF7CCFF28B90134E4B2072CF3D9002500E001254DB10DE0084800EB0410FFF744
:401C400075FF30B90134E4B200E000240F2CF3D900E00125284638BD48FA0100A8FA010008B501F029F9324A137843F0010313701032137843F00103137001F021F92D4A48
:401C8000137803F0FE03137047F2C06300E0013B23B1284A127812F0010FF8D1002B3CD04FF48032244B1A602449102000F006FC0721102000F016FC1220FFF77DFE88B91D
:401CC000FFF78CFE80B90023032211460420FFF7A3FE58B9FFF7E2FE50B9FFF7FDFE48B1012308E0012306E0012304E0012302E0012300E0002393B9FFF78AFF88B941F26D
:401D00000100FFF707FF70B90A4B00221A701B7813F0010F09D0012008BD012008BD012008BD012008BD012008BD002008BD00BFA643004010A0004080E100E0E11D000083
:401D400008B5074B1B7813B9FFF78AFF00E0002020B90122024B1A70FFF7F8FD08BD00BFAA81FF1F38B510221A4B5A70012500242CE0194B1B881D4224D06301174A9B5C31
:401D800013F0200F1ED015F03F0F18D0052C19D8DFE804F00306090C0F1200F0A9F811E000F0B4F80EE000F0CBF80BE000F0D6F808E000F0E9F805E000F0FAF802E020467C
:401DC00000F088F86D00ADB20134E4B20F2CD0D938BD00BF00A0004008A00040A0A0004008B5044B5B7813F0100F01D0FFF7BAFF08BD00BF00A00040F0B5012100265DE0ED
:401E000017F0010F4DD12F4B9B783B4249D103790BB14FF40013417931B92B4901EB0211046864054C6007E043F48013264901EB02110468E4004C6090F806E0BEF1070FD5
:401E400002D843EA0E4E01E043F4002EC3790BB14EF0040E00230FE01B4901EB0214032B02D9C3F10B0101E0C3F103018568ED5C21440D720133DBB281798B4201D2072BF0
:401E8000EAD94FF48034114B1C6011010E4D4EF4000343F008034B5101234B510C4B1C6000217B00DFB231B10132D2B201E001270022072AA4D919B10136F6B2022EF6D92A
:401EC0000846F0BD08A0004020A0004080E100E000E100E04001054BC25C12F0010F03D0C25C42F00102C254704700BFA0A00040044BDA7AD2B204490A701A7842F0010255
:401F00001A707047A0A000408081FF1F094B9A7AD2B209490A705A7A120208490A80187A0A8892B202430A801A7842F001021A70704700BFC0A000408681FF1F8281FF1F62
:401F4000044B1A7BD2B204490A701A7842F001021A707047E0A000408781FF1F0749CB7B1B02074A1380897B13889BB20B431380044A137843F001031370704720A1004095
:401F80008A81FF1F00A10040074A537B1B0207490B80107B0B889BB203449BB20B80137843F001031370704720A100408881FF1F094BDA7A120209490A80987A0A8892B2D2
:401FC00002430A805A7AD2B205490A701A7842F001021A70704700BF40A10040A881FF1F8581FF1F044A137803F0FD03400000F0020018431070704700510040044A1378A5
:4020000003F0FE0300F0010018431070704700BF50510040024B1878C0F34000704700BF31510040024B187800F00100704700BF31510040044A137803F0EF03000100F0CC
:40204000100018431070704720510040044A137803F0F703C00000F0080018431070704720510040044A137803F0FB03800000F0040018431070704720510040024A1378F4
:4020800043F080031370704773640040014B1870704700BF84640040014B1878704700BF6464004008B50146014800F0D3FA08BD22640040024B186820F07F40704700BFA6
:4020C0004264004008B50146014800F0C3FA08BD0264004008B501E0FFF7ECFFFFF7DCFF10F0080FF8D108BD10B50B4C2046FFF7D9FF2046FFF7E6FF00F0DEFE074A137867
:4021000043F01003137000F0DBFEFFF7E3FF0120FFF7BCFF10BD00BF1FBF03009464004008B5054B1B7823B9FFF7DEFF0122024B1A70FFF7A3FF08BDAB81FF1F704700BF58
:40214000014B1B689864704708ED00E04001C0B2014B1870704700BF02E400E00422014B1A60704700E100E00422014B1A60704780E100E008B5FFF7F7FF0448FFF7E0FF33
:402180000720FFF7E3FFFFF7E9FF08BD3D21000008B500F03DF900F045F908BD08B5FFF7F7FF08BD044A137803F0FE0300F0010018431070704700BF00510040024A137864
:4021C00043F080031370704774650040014B1870704700BF87650040014B1878704700BF67650040014B1860704700BF24650040014B1868704700BF44650040014B186010
:40220000704700BF0465004008B501E0FFF7F0FFFFF7E2FF10F0080FF8D108BD10B50B4C2046FFF7DFFF2046FFF7E8FF00F044FE074A137843F01003137000F041FEFFF7EB
:40224000E3FF0120FFF7C2FF10BD00BF8DD73E0D9765004008B5054B1B7823B9FFF7DEFF0122024B1A70FFF7A9FF08BDAC81FF1F014B1B68D864704708ED00E04001C0B2EC
:40228000014B1870704700BF03E400E00822014B1A60704700E100E00822014B1A60704780E100E010B50446FFF7F6FF2046FFF7DFFF0720FFF7E2FFFFF7E8FF10BD00BF22
:4022C0000822034B1A70092210331A70704700BF2164004008B5044B1B7823B9FFF7F0FF0122014B1A7008BDAD81FF1F044B1B7813F0010FFAD1034B187010331970704726
:40230000616400404164004030B400240AE0074B1B7813F0010FFAD1054B18700D5D10331D7001349442F2D330BC70476164004041640040044A137803F07F03C001C0B20E
:4023400018431070704700BF40510040044A137803F0FE0300F0010018431070704700BFC051004010B500F0D5F800F01DF9D0B900F05CF90446072812D102E0012000F036
:4023800093F80A4B1B7813F0020FF7D0074B1B7813F0020F04D0054B1B789B0800D1002400F028F900E00424204610BD2247004010B500F0AFF800F0F7F810BB012000F07B
:4023C000D5F8072818D102210F4800F0B5F802280AD102E0012000F067F80C4B1B7813F0020FF7D0002409E0084B1B7813F0020FE9D04FF0FF3401E04FF0FF3400F0FAF85E
:4024000000E00424204610BD5882FF1F2247004008B5FFF7A7FF034610B9FFF7C9FF0346184608BD08B500F047FD0F4A137843F0080313701032137843F008031370C8221D
:402440000A4B1A700A4A137843F0100313701032137843F010031370064B1B7813F0200FFAD000F02DFD08BDA043004001470040AC4300400047004001BE704710B504469A
:4024800005E0084B186800F00FFDA4F50044B4F5004FF6D8034B586800FB04F000F004FD10BD00BFD480FF1F08B5034B1B7A00FB03F000F0F9FC08BDD480FF1F70B50446C0
:4024C0000E46074B1D681F2802D90020FFF7D4FF04F01F04103455F8240045F8246070BD08ED00E038B504460D46072902D90020FFF7C2FF1F2C02D90020FFF7BDFF04F0BF
:402500001F0000F1604000F564406D01EDB2057038BD00BF08B500F0CFFC064A137843F0080313701032137843F00803137000F0C7FC08BDA043004070B506460D460024F7
:402540000CE00120FFF7B0FF064B1B7813F0010FF7D0054B1B7833550134E4B2AC42F3D3204670BD22470040204700400C4B1B7813F0020F0FD00B4BB6221A70E1221A70FC
:402580000E221A7002331B7813F0020F05D1054B187007207047042070470920704700BF224700402047004010B500F085FC0F4B1B78A3B901220D4B1A700D4B1B6813F0CD
:4025C000010F0ED00A4A136823F00103136000BF00BF00BF0122054B5A60002402E0042400E0002400F06CFC204610BDB081FF1F0400084008B500F05FFC0A4B00221A70C9
:402600005B68012B0AD1084A136843F00103136000BF00BF00BF0022024B5A6000F050FC08BD00BFB081FF1F04000840074B1B7813F0020F08D0064BB6221A70E0221A7088
:402640000D221A7007207047042070472247004020470040CBB20370C1F307234370C1F307418170704700BF10B59DF80840012C51D1013809282ED8DFE800F0052D2D0538
:402680002D2D0F192D230F2B03D92548007840B222E02448007840B21EE00F2B03D92248007840B218E02148007840B214E00F2B03D91F48007840B20EE01E48007840B237
:4026C0000AE00F2B03D91C48007840B204E01B48007840B200E0002001EB401101FB02F1C90B8AB20D2B0BD8C3F10E0289B211418AB2611E124800EB810101338B7005E01D
:40270000631E0F4901EB83030F219970013C0C4B23F8242010BD0020FFF7AEFE10BD00BF180100491C010049190100491D0100491A0100491E0100491B0100491F010049DB
:40274000B881FF1FF8B5074600F0B6FB06460D4D2B7843F003032B700B4C237843F0030323700A4B1F700320FFF79EFE2B7803F0FC032B70237803F0FC032370304600F03D
:402780009FFBF8BDF8460040F94600409258004038B50022314B1A7101285DD13822304B1A70042202331A70062201331A70002401331C7001331C703F2201331A70023314
:4027C0001C7001331C7001331C7001250A331D70502203F527631A70072201331A70292201331A7001331C70552203331A705A2201331A7001331C7002331D701122013355
:402800001A70192201331A70972201331A704420FFF798FF5822134B1A7001331C70052205331A70022201331A7001331C7001331C70204600F00AFA42F6AB120A4B1A6022
:402840002946082000F026FA2946252000F082F906491D20FFF732FE38BD00BFB881FF1F004E0040945800406082FF1F212B0000F0B583B0284D01272F70284E002474713C
:40288000102000F0F5F9102000F052F907211D20FFF728FE0422224B1A7001331C7007331C70204A137843F0180313701E4B1C7003F2F5231C7001331C700A22A3F209336A
:4028C0001A7001331C7002331C705B2205331A705E2201331A7004331C701422A3F68C231A70009710234FF4004247F602710320FFF7BAFE2B78013B06EB83039A780B4BF7
:402900001A702B78013B36F82320094B1A802878FFF73EFF03B0F0BDE480FF1FB881FF1F96580040075B0040935800400E4E00400C4E004070B500F0BFFA06462A4B1B7870
:402940002A4B1A7842F001021A701A7842F010021A7010331A7842F001021A701A7842F010021A70224D2B7843F002032B70214C237843F0020323701F4A137843F0030358
:4029800013700320FFF790FD2B7803F0FD032B70237803F0FD032370184A137843F0060313707A22164B1A70164A137843F0010313701032137843F0010313700F3A137869
:4029C00043F0010313701032137843F0010313704FF000530C4A1360A2F5C0721360304600F06EFA70BD00BFE480FF1FAA430040F8460040F9460040915800407758004061
:402A000082580040A143004080E200E008B5084B9B794BB9064BDB7913F0FF0F01D1FFF727FF0122024B9A71FFF784FF08BD00BFB881FF1F024A137843F001031370704733
:402A4000004E0040024A137803F0FE0313707047004E0040094B1B7913F0FF0F03D0074B5B79DBB203E0064B1B7803F00103012B01D00028EED01846704700BFB881FF1FEA
:402A8000014E00400E4B1B7803F00303012B03D80C4B188880B209E00A4A12780A49087842EA0020032B01D1084B1B78084B1B7913F0FF0F02D00022054B5A7100B2704736
:402AC000144E0040104E0040114E0040124E0040B881FF1F064B1B68C01A4FF47A7303FB00F0044B1B6890FBF3F000B2704700BF5C82FF1F6082FF1F10B5084A137843F0FB
:402B000004031370FFF796FF0020FFF7A3FFFFF7B9FF0446FFF796FF204610BD014E0040704700BF014B188880B2704700410040034B1A7800F0F80010431870704700BF9E
:402B400002410040024B187800F00700704700BF0241004070B505460E46FFF7F3FF0446FFF7E0FFA84256D02B4B1B7803F0010294B900B185B938B9284B1D80284A1378F1
:402B800003F0BF03137070BD254A137843F040031370224B1D8070BD22B3002321490B70012413310C7004390B7008390B7803F07F030B701A4B1B7813F0080F00D08DB930
:402BC000194B18800721013B1970164B1B7813F0010FFAD110490B7803F0FE030B700021104B19700C4B1B7813F0010F0DD00E4B1D800EB1032200E001220A4B1A70094BE0
:402C00001B7813F0010FFAD170BD044B1D8002490B7813430B7070BDA14300400041004002410040014000400240004010B5002404E02046FEF73EFD0134E4B2012CF8D9E7
:402C4000FF22014B1A7010BDE580FF1F10B50446FFF7ECFF2046FEF71FFD014B1C7010BDE580FF1F014B188880B2704780400040034B1A7800F0F80010431870704700BF90
:402C800082400040024B187800F00700704700BF8240004070B505460E46FFF7F3FF0446FFF7E0FFA84256D02B4B1B7803F0010294B900B185B938B9284B1D80284A1378B2
:402CC00003F0BF03137070BD254A137843F040031370224B1D8070BD22B3002321490B7001240F310C7004310B700C390B7803F07F030B701A4B1B7813F0080F00D08DB9F7
:402D0000194B18800721013B1970164B1B7813F0010FFAD110490B7803F0FE030B700021104B19700C4B1B7813F0010F0DD00E4B1D800EB1032200E001220A4B1A70094B9E
:402D40001B7813F0010FFAD170BD044B1D8002490B7813430B7070BDA243004080400040824000400140004002400040044A137803F0F703C00000F00800184310707047C3
:402D800030510040044A137803F0FD03400000F0020018431070704750510040024A137843F080031370704775640040024A137803F07F031370704775640040014B18708E
:402DC000704700BF87640040014B1878704700BF67640040014B1860704700BF25640040014B1868704700BF45640040014B1860704700BF0564004008B501E0FFF7F0FF41
:402E0000FFF7E2FF10F0080FF8D108BD10B50B4C2046FFF7DFFF2046FFF7E8FF00F04CF8074A137843F01003137000F049F8FFF7E3FF0120FFF7C2FF10BD00BFFF6BDC02EF
:402E40009764004008B50020FFF7D8F8FFF7AEFF08BD00BF014B1B681864704708ED00E04001C0B2014B1870704700BF00E400E00122014B1A60704700E100E00122014BE5
:402E80001A60704780E100E008B5FFF7F7FF0448FFF7E0FF0720FFF7E3FFFFF7E9FF08BD452E0000000000000230800803D000BF01380046FCD17047EFF3108072B6704721
:402EC00080F31088704700BF014B1868704700BF4881FF1F0E4B70B51E460E4C0025E41AA410A54204D056F8253098470135F8E71CF076FE084B094C1E46E41AA410002560
:402F0000A54204D056F8253098470135F8E770BDECFB0100ECFB0100ECFB0100F4FB010010B5431E0A44914204D011F8014B03F8014FF8E710BD03460244934202D003F8D2
:402F4000011BFAE7704700000EB400B54FF402719CB0ADF814106FF00041049107914FF6FF711DAB02900690084853F8042BADF81610006802A9019300F064F8029B0022A2
:402F80001A701CB05DF804EB03B070474881FF1F2DE9F0478E6882469E420C46914698463ED88A8912F4906F3AD02568096902236F1A656905EB450595FBF3F57B1C4344B1
:402FC0009D4238BF1D4653050FD5294600F040FB064698B13A462169FFF7A2FFA38923F4906343F08003A38113E02A4600F08EFB064670B92169504600F0DEFA0C23CAF852
:403000000030A3894FF0FF3043F04003A381BDE8F08726613E44266046466561ED1BA560464528BF464649463246206800F0A8FAA36800209B1BA36023681E442660BDE807
:40304000F08700002DE9F04F9DB003938B8980461C060D4616460DD50B695BB9402100F0F7FA2860286118B90C23C8F80030CDE040236B610023099320238DF82930DFF8B6
:403080009CB130238DF82A3037463C4614F8013B1BB9B7EB060910D003E0252BF9D02746F3E74B46324629464046FFF771FF013000F0A780099B4B4409933B78002B00F059
:4030C000A08000234FF0FF3204930793059206938DF853301A930126052221784E4800F041FA671C049B38B14B4A3C46801A06FA00F018430490EFE7D90644BF20228DF845
:4031000053201A0744BF2B228DF8532022782A2A03D0079A00210A200BE0039A111D12680391002A10DA524243F00200079204900BE027463B780134303B092B03D800FB83
:4031400002320121F5E701B107923B782E2B1ED17B782A2B0AD1039B02371A1D1B680392002BB8BF4FF0FF33059310E0002319460593781C0A2407463A780130303A092A4A
:4031800003D804FB01210123F5E703B1059103223978224800F0E6F940B14023CBEB000003FA00F0049B013718430490397806221B487E1C8DF8281000F0D4F988B1194B10
:4031C00033B9039B073323F007030833039314E003AB00932A46144B04A94046AFF3008007E003AB00932A460F4B04A9404600F093F8B0F1FF3F824603D0099B53440993D3
:4032000042E7AB895B0601D4099801E04FF0FF301DB0BDE8F08F00BFAAFB0100B0FB0100B4FB010000000000912F00002DE9F04791461F460A698B6806469342B8BF1346B9
:40324000C9F8003091F843200C46DDF8208012B10133C9F800302368990642BFD9F800300233C9F80030256815F0060510D104F1190A07E00123524639463046C04701300A
:403280001AD00135E368D9F800209B1A9D42F1DB94F843302268003318BF012392060FD5E118302081F843005A1C94F845102244023382F8431003E04FF0FF30BDE8F087EE
:4032C00004F1430239463046C0470130F4D02268D9F80050E36802F00602042A08BF5D1B2269A3680CBF25EAE57500259342C4BF9B1AED184FF000091A344D4509D0012320
:40330000224639463046C0470130D5D009F10109F3E70020BDE8F0872DE9F04317460A7E85B06E2A984606460C460C9B01F1430E00F0AE8011D8632A22D009D8002A00F057
:40334000BB80582A40F0CA8081F84520834955E0642A1ED0692A1CD0C0E0732A00F0B08009D86F2A2ED0702A40F0B8800A6842F020020A603EE0752A24D0782A3AD0ADE04B
:403380001A6801F14205111D1960136884F84230A8E021681A6811F0800F02D0111D196008E011F0400F02F10401196002D0B2F9003000E01368002B3CDA2D225B4284F84C
:4033C000432037E021681A6811F0800F02D0111D196007E011F0400F02F10401196001D0138800E01368227E5C496F2A14BF0A2208221BE078225A4984F8452022681868A6
:4034000012F0800F00F104051D6003D1550601D5038800E00368D00744BF42F0200222601BB9226822F0200222601022002084F8430001E049490A226568002DA56008DB53
:40344000206820F0040020602BB9002D7DD175460CE0002B79D07546B3FBF2F002FB1033CB5C05F8013D03460028F5D1082A0BD12368DA0708D5236962689A42DEBF302319
:4034800005F8013C05F1FF35C5EB0E0323612EE008681A6810F0800F496903D0101D1860136808E010F0400F02F104001860136801D0198000E0196000232361754616E0F3
:4034C0001A68111D1960156800216268284600F049F808B1401B6060636804E004F1420584F8422001232361002384F84330CDF800803B4603AA21463046FFF797FE013039
:4035000002D14FF0FF3026E023692A4639463046C0470130F5D023689B0710D5002504F1190907E001234A4639463046C0470130E7D00135E368039A9B1A9D42F2DBE068C2
:40354000039B9842B8BF184605E00B7804F1420584F842308AE705B0BDE8F083BBFB0100CCFB010010B5C9B202449042034605D01C7801308C42F8D1184610BD002010BDC5
:40358000884210B501EB020301D8421E0BE09842FBD28118D21AD34204D013F8014D01F8014DF8E710BD994204D011F8014B02F8014FF8E710BD000038B50546002944D097
:4035C00051F8043C0C1F002BB8BFE41800F0D4F81E4A1368114613B96360146030E0A3420DD92268A018834201BF18685B681218226063600C6023E0A24203D813465A68E3
:40360000002AF9D118681918A1420BD12168014458188242196013D110685268014419605A600DE002D90C232B6009E021686018824201BF106852680918216062605C60DB
:403640002846BDE8384000F098B838BDC481FF1F70B5CD1C25F0030508350C2D38BF0C25002D064601DBA94202D90C23336046E000F082F8234B1C681A462146A1B10B6873
:403680005B1B0ED40B2B03D90B60CC18CD501EE08C420BBF63684B681360636018BF0C4615E00C464968E9E7174C23681BB9304600F052F820602946304600F04DF8431C8E
:4036C00018D0C41C24F00304A0420DD12560304600F053F804F10B00231D20F00700C31A0ED05A42E25070BD211A304600F034F80130EBD10C233360304600F03EF80020AC
:4037000070BD00BFC481FF1FC081FF1FF8B5074615460E4621B91146BDE8F840FFF798BF1AB9FFF749FF2846F8BD00F027F885420ED929463846FFF78BFF044650B13146B7
:403740002A46FFF7EDFB31463846FFF735FF01E03046F8BD2046F8BD38B5064C0023054608462360FEF770F8431C02D1236803B12B6038BD6482FF1F7047704751F8040C1E
:403780000028BEBF091851F8043CC018043870470000000064646400646464006464640064646400A0A0A000A0A0A000A0A0A000A0A0A000F0F0F000F0F0F000F0F0F0004F
:4037C000F0F0F00064646400646464006464640064646400FFFFFF00FFFFFF006969690069696900E3E3E300E3E3E300A0A0A000A0A0A00064646400646464006464640043
:4038000064646400A0A0A000A0A0A000A0A0A000A0A0A000F0F0F000F0F0F000F0F0F000F0F0F00064646400646464006464640064646400FFFFFF00FFFFFF0069696900B7
:4038400069696900E3E3E300E3E3E300A0A0A000A0A0A00064646400646464006464640064646400FFFFFF00FFFFFF006969690069696900E3E3E300E3E3E300A0A0A000A9
:40388000A0A0A000243900000000200035000000FF00000000000000240D01000000160024000000FF0000000000000024790100000010001A000000FF0000000000000045
:4038C00024AD010000000C0010000000FF0000000000000024CD0100000008000E000000FF0000000000000024DB0100000008000C000000FF0000000000000024E70100B5
:40390000000006000A000000FF0000000000000024F101000000050008000000FF000000000000000000000000000000000000000000000000000000000000000000000056
:403940000000000000000000000000000000000000000000000000000000000000000000000000000000000000000000000000000000000000000000000000000000000047
:403980000000000000000000000000000000000000000000000000000000000000000000000000000000000000000000000000000000000000000000000000000000000007
:4039C00000000000000000000000000000000000000000000000000000000000000000000000000000000000000000000000000000000000000000000000000000000000C7
:403A000000000000000000000000000000000000000000000000000000000000000000000000000000000000000000000000000000F00F0000FC3F0000FFFF00801FF801B6
:403A4000C003C003E0018007F000000F7000000E381C381C383E7C1C3C3E7C3C1C3E7C381C1C38381C0000381C0000381C0000381C03C0383C03C03C3807E01C381E781CCA
:403A800070FC3F0EF0F81F0FE0E18707C003C003801FF80100FFFF0000FC3F0000F00F00000000000000000000000000000000000000000000000000000000000000000092
:403AC00000000000000000000000000000000000000000000000000000000000000000000000000000000000000000000000000000000000000000000000000000000000C6
:403B00000000000000F00F0000FC3F0000FFFF0080FFFF01C0FFFF03E0FFFF07F0FFFF0FF0FFFF0FF8E3C71FF8C1831FFCC1833FFCC1833FFCE3C73FFCFFFF3FFCFFFF3FBD
:403B4000FCFFFF3FFCFC3F3FFCFC3F3FF8F81F1FF8E1871FF003C00FF007E00FE01FF807C0FFFF0380FFFF0100FFFF0000FC3F0000F00F0000000000000000000000000055
:403B8000000000000000000000000000000000000000000000000000000000000000000000000000000000000000000000000000C007E003F01FF80FF03FFC0FF87FFE1F77
:403BC000FC7FFE3FFCFFFF3FFCFFFF3FFEFFFF7FFEFFFF7FFEFFFF7FFEFFFF7FFEFFFF7FFEFFFF7FFEFFFF7FFEFFFF7FFEFFFF7FFCFFFF3FFCFFFF3FFCFFFF3FF8FFFF1F88
:403C0000F8FFFF1FF8FFFF1FF0FFFF0FF0FFFF0FE0FFFF07C0FFFF03C0FFFF0380FFFF0180FFFF0100FFFF0000FE7F0000FC3F0000FC3F0000F81F0000F00F0000E007000D
:403C400000C0030000800100000000000000000000000000000000000000000000000000000000000000000000000000000000000000000000000000000000000000000000
:403C800000000000008000000080000000C0010000E0030000E0030000F0070000F80F0000F81F0000FC1F0000FE3F0000FF7F0000FFFF0080FFFF01C0FFFF03E0FFFF076F
:403CC000F0FFFF0FF8FFFF1FFCFFFF3FFEFFFF7FFCFFFF3FF8FFFF1FF0FFFF0FE0FFFF07C0FFFF03C0FFFF0180FFFF0000FF7F0000FE7F0000FC3F0000FC1F0000F80F0078
:403D000000F00F0000F0070000E0030000E0030000C00100008000000080000000000000000000000000000000000000000000000000000000000000000000000000000006
:403D400000000000000000000000000000000000000000000000000000E0070000F00F0000F81F0000FC3F0000FE7F0000FE7F0000FE7F0000FE7F0000FE7F0000FE7F001D
:403D800000FC3F0000FC3F0000F81F00E0FBDF07F8FFFF1FF8FFFF1FFCFFFF3FFEFFFF7FFEFFFF7FFEFFFF7FFEFFFF7FFEFFFF7FFEFFFF7FFCBFFF3FFCFFFF3FF8DFFB1F4D
:403DC000F0CFF30FE0C3C30700C0030000E0070000E0070000E0070000E0070000E0070000E0070000F00F0000F00F0000F00F00000000000000000000000000000000006B
:403E00000000000000000000000000000000000000000000000000000000000000000000000000000000000000000000008000000080010000C0010000E0030000E00700F6
:403E400000F0070000F80F0000FC1F0000FC3F0000FE7F0000FFFF0080FFFF00C0FFFF01E0FFFF03F0FFFF07F0FFFF0FF8FFFF1FFCFFFF3FFCFFFF3FFEFFFF7FFEFFFF7FE6
:403E8000FEFFFF7FFEFFFF7FFEFFFF7FFEFFFF7FFCFFFF3FF8DFFB1FF0CFF30FE0C3C30700C0030000E0070000E0070000E0070000E0070000E0070000F00F0000F00F007A
:403EC00000F00F00000000000000000000000000000000000000000000000000000000000000000000000000000000000000000000000000000000000000000000000000C3
:403F00000000000000000000000000000000000000000000000000000000000000000000000000000000000000000000000000000000000000000000000000000000000081
:403F40000000000000000000000000000000000000000000000000000000000000000000000000000000000000000000000000000000000000000000000000000000000041
:403F80000000000000000000000000000000000000000000000000000000000000000000000000000000000000000000000000000000000000000000000000000000000001
:403FC00000000000000000000000000000000000000000000000000000000000000000000000000000000000000000000000000000000000000000000000000000000000C1
:404000000000000000000000000000000000000000000000000000000000000000000000000000000000000000000000000000000000000000000000000000000000000080
:404040000000000000000000000000000000000000000000000000000000000000000000000000000000000000000000000000000000000000000000000000000000000040
:404080000000000000000000000000000000000000000000000000000000000000000000000000000000000000000000000000000000000000000000000000000000000000
:4040C00000000000000000000000000000000000000000000000000000000000000000000000000000000000000000000000000000000000000000000000000000000000C0
:40410000000000000000000000000000000000000000000000000000000000000000000000000000000000000000000000000000000000000000000000000000000000007F
:40414000000000000000000000000000000000000000000000000000000000000000000000000000000000000000000000000000000000000000000000000000000000003F
:4041800000000000000000000000000000000000000000000000000000000000000000000000000000000000000000000000000000000000000000000000000000000000FF
:4041C00000000000000000000000000000000000000000000000000000000000000000000000000000000000000000000000000000000000000000000000000000000000BF
:40420000000000000000000000000000000000000000000000000000000000000000000000000000000000000000000000000000000000000000000000000000000000007E
:404240000000000000000000000000000000000C0000801F0000F81F0080FF1F0080FF3F0080BF3F0000C33F0000C03F0000E0790000F0790000F0780000F8F0000078F027
:4042800000FE3D3080FF3F00E0FF1F00F0FF3F00F8037F00FC00FC007C00F8003E00F0011E00E0011F00E0030F00C0030F00C0030F00C0030F00C0030F00C0030F00C003A7
:4042C0001F00E0031E00E0013E00F0017C00F800FC00FC00F8037F00F0FF3F00E0FF1F0080FF070000FE0100000000000000000000000000000000000000000000000000F7
:4043000000000000000000000000000000000000000000000000000000000000000000000000000000F00F0000FC3F0000FFFF0080FFFF01C01FF803E007E007E003C00774
:40434000F001800FF000000FF800001F7800001E7800001E7800001E7800001E7800001EF800001FF000000FF001800FF003C00FE007E007C01FF80380FFFF0100FFFF003C
:4043800000FE7F0000F00F0000C0030000C0030000C0030000C0030000FFFF0000FFFF0000FFFF0000FFFF0000C0030000C0030000C0030000C0030000C0030000000000AE
:4043C00000000000000000000000000000000000000000000000000000000000000000000000000000000000000000000000000000000000000000000000000000000000BD
:40440000000000000000000000000000000000000000000000000000000000000000000000000000000000000000000000000000000000000000000000000000000000007C
:40444000000000000000000000000000000000000000000000000000000000000000000000000000000000000000000000000000000000000000000000000000000000003C
:4044800000000000000000000000000000000000000000000000000000000000000000000000000000000000000000000000000000000000000000000000000000000000FC
:4044C000000000000000000000000020000000380000003E0000803F0000F03F0000FC3F0000FF3F00C0FF3B00F0FF3800F83F3800F80F3800F8033800F80038003800381D
:404500000038003800380038003800380038003800380038003800380038003800380038003800380038003800380038003800380038003800380038003800380038E03F94
:404540000038F83F0038FC3F0038FC1F0038FE1F0038FE0F0038FE070038FC030038F800E03F0000F83F0000FC1F0000FE1F0000FE1F0000FE0F0000FE070000FC0300000C
:40458000F80000000000000000000000000000000000000000000000000000000000000000000000000000000000000000000000000000000000000000C0030000C003007D
:4045C00000C00300C0C00303E0F18F07E0FFFF07C0FFFF0380FFFF01803FFC01800FF001C007E003C007E003FC03C03FFC03C03FFC03C03FFC03C03FC007E003C007E0030A
:40460000800FF001803FFC0180FFFF01C0FFFF03E0FFFF07E0F18F07C0C0030300C0030000C0030000C00300000000000000000000000000000000000000000000000000E3
:40464000000000000000000000000000000000000000000000000000000000000000000000000000000000000000000000000000000000000000000000000000000000003A
:4046800000000000000000000000000000000000020000000E0000003E000000FE000000FE030000FE0F0000FE3F0000FEFF0000FEFF0100FEFF0700FEFF1F00FEFF7F00CC
:4046C000FEFFFF01FEFFFF07FEFFFF1FFEFFFF7FFEFFFF1FFEFFFF07FEFFFF01FEFF7F00FEFF1F00FEFF0700FEFF0100FEFF0000FE3F0000FE0F0000FE030000FE00000029
:404700003E0000000E00000002000000000000000000000000000000000000000000000000000000000000000000000000000000000000000000000000000000000000002B
:4047400000000000000000000000000000000000000000000000000000000000000000000000000000000040000000700000007C0000007F0000C07F0000F07F0000FC7F65
:404780000000FF7F0080FF7F00E0FF7F00F8FF7F00FEFF7F80FFFF7FE0FFFF7FF8FFFF7FFEFFFF7FF8FFFF7FE0FFFF7F80FFFF7F00FEFF7F00F8FF7F00E0FF7F0080FF7FC6
:4047C0000000FF7F0000FC7F0000F07F0000C07F0000007F0000007C0000007000000040000000000000000000000000000000000000000000000000000000000000000067
:4048000000000000000000000000000000000000000000000000000000000000008001000080010000C0030000E0070000E0070000F00F0000FC3F0000DE7B0000CFF30090
:4048400000C7E30000C0030000C0030000C0030000C0030000C0030000C0030000C0030000C0030000C0030000C0030000C0030000C0030000C0030000C0030000C0030021
:4048800000C0030000C0030000C0030000C0030000C0030000C0030000C0030000C0030000C0030000C0030000C0030000C7E30000CFF30000DE7B0000FC3F0000F00F0098
:4048C00000E0070000E0070000C00300008001000080010000000000000000000000000000000000000000000000000000000000001FF800001FF800001FF800001FF800C9
:40490000001FF800001FF800001FF800001FF800001FF800001FF800001FF800001FF800001FF800001FF800001FF800001FF800001FF800001FF800001FF800001FF80007
:40494000001FF800001FF800001FF800000FF800000E7000000E7000000E70000000000000000000000000000000000000000000803FFC01803FFC01803FFC01803FFC0181
:40498000803FFC01803FFC0100000000000000000000000000000000000000000000000000000000000000000000000000000000000000000000000000000000000000007F
:4049C0000000000000FEFF03C0FFFF03E0FFFF03F0FF8003F0FF8003F8FF8003F8FF8003F8FF8003F8FF8003F8FF8003F8FF8003F8FF8003F0FF8003F0FF8003E0FF800395
:404A0000C0FF800380FF800300FE800300F8800300E0800300E0800300E0800300E0800300E0800300E0800300E0800300E0800300E0800300E0800300E0800300E0800392
:404A400000E0800300E0800300E0800300E0800300E0800300E0800300E0800300E0800300E0800300E0800300E0800300E0800300E0800300E0800300E080030000000069
:404A8000000000000000000000000000000000000000000000C07F0000F8FF0300FEFF0300FFFF03803FC003800F0000C0070000C0070000C0070000C0070000C00F0000C0
:404AC000801F0000807F000000FF010000FE070000FC1F0000FE7F0000CFFF00800FFF018007FC03C007F003C007E007C007E007C007C007C00FC007801FC007807FC00336
:404B000000FFE00300FEE30100FCFF0000F07F0000E07F000000FF000000FE010000F8030000F0030000E0070000C0070000C0070000C0074000C007C001E003C00FF8034B
:404B4000C0FFFF01C0FFFF0000FF3F0000F80F0000000000000000000000000000000000000000000000000000000000000000000000000000000000000000000000000073
:404B80000000000000000000000000000000000000000000000000000000000000000000FCFFFF3FFCFFFF3FFCFFFF3FFCFFFF3FFCFFFF3FFCFFFF3FFCFFFF3FFCFFFF3F2D
:404BC000FCFFFF3F0000000000000000000000000000000000000000000000000000000000000000000000000000000000000000000000000000000000000000000000007C
:404C0000000000000000000000000000000000000000000000000000000000000000000000000000000000000000000000000000008001000080010000C0030000E00700C8
:404C400000E0070000F00F0000FC3F0000DE7B0000CFF30000C7E30000C1830000C0030000C0030000C0030000C0030000C0030000C0030000C0030000C0030000C003002F
:404C800000C0030000C0030000C0030000C0030000C0030000C0030000C0030000C0030000C0030000C0030000C0030000C0030000C0030000C0030000C0030000C1830043
:404CC00000C7E30000CFF30000DE7B0000FC3F0000F00F0000E0070000E0070000C00300008001000080010000000000000000000000000000FFFF0000FFFF0000FFFF0028
:404D000000FFFF0000000000000000000000000000000000008001000080010000C0030000E0070000E0070000F00F0000FC3F0000FE7F0000CFF30000C7E30000C00300FC
:404D400000C0030000C0030000C0030000C0030000C0030000C0030000C0030000C0030000C0030000C0030000C0030000C0030000C0030000C0030000C0030000C0030003
:404D800000C0030000C0030000C0030000C0030000C0030000C0030000C0030000C0030000C0030000C0030000C0030000C0030000C0030000C0030000C0030000C00300C3
:404DC00000C0030000C0030000C003000000000000000000000000000000000000000000000000000000000000C0030000C0030000C0030000C0030000C0030000C00300D8
:404E000000C0030000C0030000C0030000C0030000C0030000C0030000C0030000C0030000C0030000C0030000C0030000C0030000C0030000C0030000C0030000C0030042
:404E400000C0030000C0030000C0030000C0030000C0030000C0030000C0030000C0030000C0030000C0030000C0030000C0030000C0030000C0030000C7E30000CFF3001C
:404E800000DE7B0000FC3F0000F00F0000E0070000E0070000C0030000800100008001000000000000000000000000000000000000000000000000000000000000000000CC
:404EC000000000000000000000000000000000000000000000000000000000000000000000000000000000000000000000000000000000000000000000003800000070000A
:404F00000000F0000000E0010000E0030000C007FCFFFF0FFCFFFF3FFCFFFF3FFCFFFF0F0000C0070000E0030000E0010000F000000070000000380000000000000000004F
:404F40000000000000000000000000000000000000000000000000000000000000000000000000000000000000000000000000000000000000000000000000000000000031
:404F800000000000000000000000000000000000000000000000000000000000000000000000000000000000000000000000000000000000000000000000000000000000F1
:404FC000000000000000000000000000001C0000000E0000000F000080070000C0070000E0030000F0FFFF3FFCFFFF3FFCFFFF3FF0FFFF3FE0030000C0070000800700004A
:40500000000F0000000E0000001C00000000000000000000000000000000000000000000000000000000000000000000000000000000000000000000000000000000000037
:405040000000000000000000000000000000000000000000000000000000000000000000000000000000000000000000000000000000000000000000000000000000000030
:40508000000000000000000000000000000000003C0000003C0000003C0000003C0000003C0000003C0000003C0000003C0000003C0000003C0000003C0000003C00000020
:4050C0003C0000003C0000003C0000003C0000003C0000003C0000003C0000003C0000003C0000003C0000003C000000FCFFFF3FFCFFFF3FFCFFFF3FFCFFFF3F0000000038
:40510000000000000000000000000000000000000000000000000000000000000000000000000000000000000000000000000000000000000000000000000000000000006F
:4051400000000000000000000000000000000000000000000000000000000000000000000000000000000000000000000000000000000000001C3800000E7000000FF0005E
:405180008007E001C007E003E003C007F0FFFF0FFCFFFF3FFCFFFF3FF0FFFF0FE003C007C007E0038007E001000FF000000E7000001C38000000000000000000000000003A
:4051C00000000000000000000000000000000000000000000000000000000000000000000000000000000000000000000000000000000000000000000000000000000000AF
:4052000000000000000000000000000000000000000000000000000000000000000000000000000000000000008000000080000000C0010000C0010000E0030000E0030026
:4052400000F0070000F0070000F00F0000F80F0000F81F0000FC1F0000FC3F0000FE3F0000FE7F0000FF7F0000FFFF0080FFFF0080FFFF01C0FFFF01C0FFFF03E0FFFF0339
:40528000E0FFFF07E0FFFF07F0FFFF0FF0FFFF0FF8FFFF1FF8FFFF1FFCFFFF3FFCFFFF3FFEFFFF7F0000000000000000000000000000000000000000000000000000000013
:4052C000000000000000000000000000000000000000000000000000000000000000000000000000000000000000000000000000000000000000000000000000FEFFFF7F33
:40530000FCFFFF3FFCFFFF3FF8FFFF1FF8FFFF1FF0FFFF0FF0FFFF0FE0FFFF07E0FFFF07E0FFFF03C0FFFF03C0FFFF0180FFFF0180FFFF0000FFFF0000FF7F0000FE7F00B6
:4053400000FE3F0000FC3F0000FC1F0000F81F0000F80F0000F00F0000F0070000F0070000E0030000E0030000C0010000C001000080000000800000000000000000000047
:4053800000000000000000000000000000000000000000000000000000000000000000000000000000000000000000000000000000000000000000000000000000000000ED
:4053C00000000000000000000000000000000000000000000000000000000000000000000000000000000000000000000000000000000000000000000000000000000000AD
:40540000000000000000000000000000000000000000000000000000000000000000000000000000000000000000000000000000000000000000000000000000000000006C
:40544000000000000000000000000000000000000000000000000000000000000000000000000000000000000000000000000000000000000000000000000000000000002C
:40548000000000000000000000E0030000E0030000E0030000E0030000E0030000E0030000E0030000E0030000E0030000E0030000E0030000E0030000E0030000E0030082
:4054C00000E0030000E0030000E0030000E0030000E0030000E0030000E0030000E0030000E0030000E0010000C0010000C0010000C001000000000000000000000000008D
:40550000000000000000000000F0070000F0070000F0070000F0070000F0070000F007000000000000000000000000000000000000000000000000000000000000000000A1
:4055400000000000000000000000000000000000C00FF801C00FF801C00FF801C00FF801C00FF8018007F0008007F0008007F0008007F0008007F0008007F0008007F00002
:405580008007F0008007F0000000000000000000000000000000000000000000000000000000000000000000000000000000000000000000000000000000000000000000FD
:4055C00000000000000000000000000000000000000000000000000000000000000000000000000000000000000000000000000000000000000000000000000000000000AB
:4056000000000000000000000000000000000000000000000000000000000000000000000000000000000000000000000000000000C0030F00C0030F00E0810700E08107F6
:4056400000E0810700E0810700F0C00300F0C00300F0C0030078E0010078E001E0FFFF7FF0FFFF7FF0FFFF7FF0FFFF3F003CF000003CF000001E7800001E7800001E780011
:40568000000F3C00000F3C00FCFFFF1FFEFFFF1FFEFFFF0FFEFFFF0F80071E0080071E00C0030F00C0030F00C0030F00C0030F00E0810700E0810700E0810700E0810700D8
:4056C000F0C00300F0C0030000000000000000000000000000000000000000000000000000000000000000000000000000000000000000000000000000800300008003003E
:405700000080030000F03F0000FCFF0100FEFF0300FFFF03809FC303808F0302C08F0300C0870300C0870300C0870300C0870300C08F0300808F0300809F030000BF0300FF
:4057400000FE030000FC030000F8070000F00F0000E03F0000807F000080FF000080FF010080FB030080F3030080E3070080C3070080C3070080C3070080C3070080C3073E
:405780000080E303E080E303E087FB01E0FFFF01E0FFFF0080FF3F0000FC0F00008003000080030000800300000000000000000000000000000000000000000000000000CB
:4057C0000000000000000000000000000000000000000000000000F0E0070078F81F003CFC3F003C3E7C001E1E78000F1E7880070FF080070FF0C0030FF0E0010FF0E001EE
:405800000FF0F0000FF078001E7878001E783C003C3C1E00FC3F0F00F81F0F00E087070000C0030000C0030000E0E10700F0F81F00F0FC3F00783C3C003C1E78001E1E78B8
:40584000001E0FF0000F0FF080070FF080070FF0C0030FF0E0010FF0E0011E78F0001E7878003C3C3C00FC3F3C00F81F1E00E0070F00000000000000000000000000000084
:405880000000000000000000000000000000000000000000000000000000000000000000000000000000000000E00F0000F83F0000FC7F0000FEFF00007EFC00003FF80198
:4058C000001FF001001FF001001FF001001FF001001FF800003FF800003E7C00003E3F0000FE1F0000FC0F0000FC030000FF0100C0FF0100E0FF01F8F0F303F8F8E103F872
:40590000FCE007F87CC00F783EC00F783E801F783E003F7C3E007F3C3E007E3C3E00FC3E7E00FC1F7E00F80FFC00F00FFC01E007F803F00FF007FE1FF0FFFF3FC0FF3F7FD8
:4059400080FF0FFE00FC0100000000000000000000000000000000000000000000000000000000000000000000000000000000000000000000F00F0000F00F0000F00F00A1
:4059800000F00F0000F00F0000F00F0000E0070000E0070000E0070000E0070000E0070000E0070000E0070000E0070000E0070000E00700000000000000000000000000E4
:4059C00000000000000000000000000000000000000000000000000000000000000000000000000000000000000000000000000000000000000000000000000000000000A7
:405A00000000000000000000000000000000000000000000000000000000000000000000000000000000000000000000000000000000000000000000000000000000000066
:405A400000000000000000000000000E0000C00F0000F00F0000F80F0000FE030000FF0000803F0000800F0000C0070000E0070000E0030000F0010000F8010000F8000082
:405A800000F80000007C0000007C0000007C0000007C0000003E0000003E0000003E0000003E0000003E0000003E0000003E0000003E0000003E0000003E0000003E000054
:405AC000007C0000007C0000007C0000007C000000F8000000F8000000F8010000F0010000E0030000E0070000C0070000800F0000803F000000FF000000FE030000F80FF6
:405B00000000F00F0000C00F0000000E0000000000000000000000000000000070000000F0030000F00F0000F01F0000C07F000000FF000000FC010000F0010000E0030009
:405B400000E0070000C00F0000800F0000801F0000001F0000001F0000003E0000003E0000003E0000003E0000007C0000007C0000007C0000007C0000007C0000007C0023
:405B800000007C0000007C0000007C0000007C0000007C0000003E0000003E0000003E0000003E0000001F0000001F0000801F0000800F0000C0070000E0070000E0030084
:405BC00000F0010000FC010000FF0000C07F0000F01F0000F00F0000F0030000700000000000000000000000000000000000000000000000000000000000000000E0030025
:405C000000E0030000E0030000E0030000E0030020C00102E0C08103E0C3E103E00FF803F01FFC07E00FF803000C1800000000000010040000780F00003C1E00003E3E00CF
:405C4000001F7C00801FFC00800FF80000077000000410000000000000000000000000000000000000000000000000000000000000000000000000000000000000000000DC
:405C800000000000000000000000000000000000000000000000000000000000000000000000000000000000000000000000000000000000000000000000000000000000E4
:405CC00000000000000000000000000000000000000000000000000000000000000000000000000000000000000000000000000000000000000000000000000000C00300E1
:405D000000C0030000C0030000C0030000C0030000C0030000C0030000C0030000C0030000C0030000C00300FCFFFF3FFCFFFF3FFCFFFF3FFCFFFF3F00C0030000C003005B
:405D400000C0030000C0030000C0030000C0030000C0030000C0030000C0030000C0030000C0030000C0030000000000000000000000000000000000000000000000000085
:405D800000000000000000000000000000000000000000000000000000000000000000000000000000000000000000000000000000000000000000000000000000000000E3
:405DC00000000000000000000000000000000000000000000000000000000000000000000000000000000000000000000000000000000000000000000000000000000000A3
:405E00000000000000000000000000000000000000000000000000000000000000F0070000F0070000F0070000F0070000F0070000F0070000F0070000F007000080070023
:405E400000800700008003000080030000C0030000F0010000F0000000300000000000000000000000000000000000000000000000000000000000000000000000000000C1
:405E800000000000000000000000000000000000000000000000000000000000000000000000000000000000000000000000000000000000000000000000000000000000E2
:405EC0000000000000000000E0FFFF07E0FFFF07E0FFFF07E0FFFF07000000000000000000000000000000000000000000000000000000000000000000000000000000000E
:405F00000000000000000000000000000000000000000000000000000000000000000000000000000000000000000000000000000000000000000000000000000000000061
:405F40000000000000000000000000000000000000000000000000000000000000000000000000000000000000000000000000000000000000000000000000000000000021
:405F800000000000000000000000000000000000000000000000000000000000000000000000000000000000000000000000000000000000000000000000000000000000E1
:405FC0000000000000F00F0000F00F0000F00F0000F00F0000F00F0000F00F0000F00F0000F00F0000000000000000000000000000000000000000000000000000000000A9
:4060000000000000000000000000000000000000000000000000003C0000001E0000001E0000000F0000000F00008007000080070000C0030000C0030000E0010000E00174
:406040000000F0000000F000000078000000780000003C0000003C0000001E0000001E0000000F0000000F00008007000080070000C0030000C0030000C0030000E0010046
:4060800000E0010000F0000000F000000078000000780000003C0000003C0000001E0000001E0000000F0000000F00008007000080070000C0030000C0030000E0010000E8
:4060C000E0010000F0000000F000000078000000780000003C00000000000000000000000000000000000000000000000000000000E0070000FC3F0000FE7F0000FFFF0016
:40610000801FF801C00FF003C007E003E003C007E003C007E0018007F001800FF001800FF001800FF000000FF800001FF800001FF800001FF800001FF800001FF800001F96
:40614000F800001FF800001FF800001FF800001FF800001FF800001FF000000FF001800FF001800FF001800FE0018007E003C007E003C007C007E003C00FF003801FF80156
:4061800000FFFF0000FE7F0000FC3F0000E0070000000000000000000000000000000000000000000000000000000000000000000000000000000000000000000000000042
:4061C0000000000000000C0000800F0000F00F0000FE0F00C0FF0F00E0FF0F00E0870F0060800F0000800F0000800F0000800F0000800F0000800F0000800F0000800F00EE
:4062000000800F0000800F0000800F0000800F0000800F0000800F0000800F0000800F0000800F0000800F0000800F0000800F0000800F0000800F0000800F0000800F006E
:4062400000800F0000800F0000800F0000800F00E0FFFF3FE0FFFF3FE0FFFF3FE0FFFF3F00000000000000000000000000000000000000000000000000000000000000006E
:4062800000000000000000000000000000000000000000000000000000FC0300C0FF0F00E0FF3F00E0FF7F00E0037F006000FC000000F8000000F8010000F0010000F00104
:4062C0000000F0010000F0010000F0010000F0010000F8000000F80000007C0000007C0000003E0000001F0000800F0000C0070000E0030000F0010000F80000007C0000F7
:40630000007C0000003E0000001F0000800F0000800F0000C0070000E0070000E0030000F0030000F0FFFF01F0FFFF01F0FFFF01F0FFFF0100000000000000000000000026
:40634000000000000000000000000000000000000000000000000000000000000000000000000000000000000000000000F80F0080FF3F0080FFFF0080FFFF008007FC01D8
:406380008000F0030000F0030000E0030000E0030000E0030000E0030000E0030000F0010000F0010000FC0000007E0000FC1F0000FC0F0000FC1F0000FC7F000000FF00F1
:4063C0000000F8010000F0030000E0030000E0030000C0070000C0070000C0070000C0070000C0070000C0070000E0070000E0030000F0034000F801C003FE01C0FFFF00CB
:40640000C0FF7F00C0FF1F0000FE0300000000000000000000000000000000000000000000000000000000000000000000000000000000000000000000000000000000003F
:40644000000000000000F8000000FC000000FE000000FE000000FF000080FF000080FF0000C0FF0000E0FB0000E0F90000F0F90000F8F8000078F800003CF800003EF80009
:40648000001EF800000FF800800FF8008007F800C003F800E003F800F001F800F000F800F800F800F8FFFF1FF8FFFF1FF8FFFF1FF8FFFF1F0000F8000000F8000000F80026
:4064C0000000F8000000F8000000F8000000F8000000F8000000F8000000F800000000000000000000000000000000000000000000000000000000000000000000000000D4
:4065000000000000000000000000000000000000000000000000000000FFFF0300FFFF0300FFFF0300FFFF0300FFFF03000F0000000F0000000F0000000F0000000F00000B
:40654000000F0000000F0000000F0000000F0000000F000000FF010000FF0F0000FF3F0000FF7F000080FF000000FC010000F0030000E0030000E0030000C0070000C00743
:406580000000C0070000C0070000C0070000C0070000E0070000E0030000F0038000F8018007FE0080FFFF0080FF3F0080FF1F0000FC03000000000000000000000000002B
:4065C0000000000000000000000000000000000000000000000000000000000000000000000000000000000000807F0000E0FF0700F8FF0700FCFF0700FE8007003F0004EE
:40660000001F0000800F0000C00F0000C0070000C0070000E0030000E0030000E0030000E0010000F0811F00F0E17F00F0F9FF01F0FDFF03F03DF807F00FE007F007C00F35
:40664000F007800FF003801FF003001FF003001FF003001FE003001FE003001FE003001FE003001FC003800FC007800FC00FC00F801FE007003FF00300FFFF0100FEFF00CA
:4066800000F87F0000E01F00000000000000000000000000000000000000000000000000000000000000000000000000000000000000000000000000000000000000000064
:4066C000E0FFFF0FE0FFFF0FE0FFFF0FE0FFFF0FE0FFFF0F000080070000C0070000C0030000E0030000E0010000F0000000F8000000780000007C0000003C0000003E00CE
:4067000000001E0000001F0000800F0000800F0000C0070000C0070000E0030000E0030000F0010000F8010000F8000000FC000000FC0000007E0000007E0000003E000096
:40674000003F0000003F0000003F0000801F0000801F0000801F0000000000000000000000000000000000000000000000000000000000000000000000000000000000007F
:406780000000000000000000000000000000000000E00F0000FC7F0000FEFF0000FFFF01803FFC01800FF003C007F003C007E003C007E003C007E003C007E003C00FE00123
:4067C000C00FF001801FF001803FF80000FF7C0000FE3F0000FC1F0000F81F0000FE3F0000FFFF00801FFF01C00FFE03C007F803E003F007E003E007F001C00FF001C00F18
:40680000F001800FF001800FF001800FF001800FF003C007E007C007E00FE007C01FF80380FFFF0100FFFF0000FE3F0000F00F000000000000000000000000000000000087
:4068400000000000000000000000000000000000000000000000000000000000000000000000000000F00F0000FC3F0000FEFF0000FFFF01801FF801C00FF003E007E007BA
:40688000E003C007E0038007F001800FF001800FF001800FF001800FF001801FF001801FF001801FF003801FE003C01FE007C01FC00FE01FC03F781F80FF7F1F00FF3F1F1C
:4068C00000FC0F1F00F0031F0000000F0000800F0000800F0000800F0000C0070000C0070000E0070000E0030000F0014000F801C003FE00C0FF7F00C0FF3F00C0FF0F0053
:4069000000FC030000000000000000000000000000000000000000000000000000000000000000000000000000000000000000000000000000000000000000000000000058
:4069400000000000000000000000000000000000000000000000000000000000000000000000000000F00F0000F00F0000F00F0000F00F0000F00F0000F00F0000F00F001E
:4069800000F00F0000000000000000000000000000000000000000000000000000000000000000000000000000000000000000000000000000F00F0000F00F0000F00F00DB
:4069C00000F00F0000F00F0000F00F0000F00F0000F00F0000000000000000000000000000000000000000000000000000000000000000000000000000000000000000009C
:406A0000000000000000000000000000000000000000000000000000000000000000000000000000000000000000000000000000000000000000000000F00F0000F00F0058
:406A400000F00F0000F00F0000F00F0000F00F0000F00F0000F00F00000000000000000000000000000000000000000000000000000000000000000000000000000000001C
:406A8000000000000000000000F00F0000F00F0000F00F0000F00F0000F00F0000F00F0000F00F0000F00F0000800F00008007000080070000C0070000C0030000F00300C4
:406AC00000F0010000700000000000000000000000000000000000000000000000000000000000000000000000000000000000000000000000000000000000000000000035
:406B00000000000000000000000000000000000000000020000000380000003E0000803F0000E01F0000F8070000FE0100C07F0000F01F0000FC070000FF0100C07F000073
:406B4000F01F0000FC070000F01F0000C07F000000FF010000FC070000F01F0000C07F000000FE010000F8070000E01F0000803F0000003E00000038000000200000000012
:406B800000000000000000000000000000000000000000000000000000000000000000000000000000000000000000000000000000000000000000000000000000000000D5
:406BC000000000000000000000000000000000000000000000000000000000000000000000000000000000000000000000000000000000000000000000000000FCFFFF3F5C
:406C0000FCFFFF3FFCFFFF3FFCFFFF3F000000000000000000000000000000000000000000000000FCFFFF3FFCFFFF3FFCFFFF3FFCFFFF3F000000000000000000000000C5
:406C40000000000000000000000000000000000000000000000000000000000000000000000000000000000000000000000000000000000000000000000000000000000014
:406C80000000000000000000000000000000000000000000000000000000000000000000000000000000000000000000000000000000000000000000040000001C000000B4
:406CC0007C000000FC010000F8070000E01F0000807F000000FE030000F80F0000E03F000080FF000000FE030000F80F0000E03F0000F80F0000FE030080FF0000E03F00AB
:406D000000F80F0000FE0300807F0000E01F0000F8070000FC0100007C0000001C0000000400000000000000000000000000000000000000000000000000000000000000B5
:406D40000000000000000000000000000000000000000000000000000000000000FF0F00F0FF7F00F0FFFF01F0FFFF03F001F807F000E007F000C00FF000800FF000800F33
:406D80000000800F0000800F0000C0070000C0070000E0030000F0010000F80000007E0000003F0000800F0000C0070000E0030000F0010000F0010000F0000000F800009B
:406DC00000F8000000F8000000F80000000000000000000000000000000000000000000000FC010000FC010000FC010000FC010000FC010000FC01000000000000000000BD
:406E000000000000000000000000000000000000000000000000000000000000000000000000000000000000000000000000000000803F0000F0FF0100FCFF03007EE00740
:406E4000001F800F800F000FC007000FC003001EE001F81EF001FE1FF000FF1FF0800F1F7880071E78C0031E78E0011E7CE0011E3CE0011E3CE0001E3CF0001F3CF0001FEB
:406E80003CF0001F3CF0801F3CF0801F3CF0C01F3CF0C01F3CF0E01E7CF0F11E78E0791E78E07F1E78C03FFEF0C01FFEF0000FFEE0010000E0030000C0070000800F0001F8
:406EC000003FE00100FEFF0100F8FF0100E01F000000000000000000000000000000000000000000000000000000000000000000000000000000000000000000000000007D
:406F00000000000000000000000000000000000000000000000000000000000000E0070000E0070000F00F0000F00F0000F00F0000781F0000781F00007C3F00003C3E0023
:406F4000003C3E00003E7C00001E7C00001FFC00000FF800000FF800800FF0018007F001C007F003C007E003C003E003E003C007E0FFFF07F0FFFF0FF0FFFF0FF8FFFF1F7A
:406F8000F800001FF800001F7C00003F7C00003E7E00007E3E00007C3E00007C3F0000FC000000000000000000000000000000000000000000000000000000000000000083
:406FC000000000000000000000000000000000000000000000000000000000000000000000000000000000000000000000000000E0FF1F00E0FFFF00E0FFFF03E0FFFF07EF
:40700000E003F007E003C00FE003800FE003800FE003800FE003800FE003C007E003E003E003FC01E0FFFF00E0FF3F00E0FF7F00E0FFFF01E003FE03E003F007E003C00F03
:40704000E003800FE003801FE003001FE003001FE003001FE003001FE003801FE003800FE003F00FE0FFFF07E0FFFF03E0FFFF01E0FF3F000000000000000000000000007B
:4070800000000000000000000000000000000000000000000000000000000000000000000000000000000000000000000000000000000000000000000000000000000000D0
:4070C0000000FF0300E0FF3F00F8FF3F00FEFF3F00FF013E803F0030C01F0000C00F0000E0070000E0030000F0030000F0010000F0010000F8000000F8000000F80000009C
:40710000F8000000F8000000F8000000F8000000F8000000F8000000F0010000F0010000F0030000E0030000E0070000C00F0000C01F0000807F002000FF013C00FEFF3F9B
:4071400000F8FF3F00E0FF1F0000FF0100000000000000000000000000000000000000000000000000000000000000000000000000000000000000000000000000000000DB
:40718000000000000000000000000000000000000000000000000000F8FF0300F8FF1F00F8FF7F00F8FFFF00F800FE01F800F803F800E007F800C007F800C00FF800800F7D
:4071C000F800800FF800801FF800001FF800001FF800001FF800001FF800001FF800001FF800001FF800001FF800001FF800800FF800800FF800800FF800C007F800C0078F
:40720000F800E003F800F803F800FF01F8FFFF00F8FF7F00F8FF1F00F8FF01000000000000000000000000000000000000000000000000000000000000000000000000000E
